S00B00005550532E7372656321
S11300000C9434000C9446000C9446000C94460066
S11300100C9446000C9446000C9446000C94460044
S11300200C9446000C9446000C9446000C94460034
S11300300C9446000C9448000C9446000C94460022
S11300400C945C000C9446000C94B6000C9446008E
S11300500C9446000C9446000C9446000C94460004
S11300600C9446000C94460011241FBECFEFD8E038
S1130070DEBFCDBF21E0A0E0B1E001C01D92A333FB
S1130080B207E1F70E94DB000C945E040C940000BC
S11300901F920F920FB60F9211248F939F938CEDA2
S11300A09BE090938500809384009F918F910F90A3
S11300B00FBE0F901F9018951F920F920FB60F92BC
S11300C011248F939F93AF93BF9380EF86BD80914C
S11300D016018F5F809316018091030190910401B2
S11300E0A0910501B09106010196A11DB11D809357
S11300F0030190930401A0930501B093060180913C
S11301000D0190910E01A0910F01B0911001019683
S1130110A11DB11D80930D0190930E01A0930F01B9
S1130120B09310018091090190910A010196909376
S11301300A018093090180910B0190910C010196B1
S113014090930C0180930B01809100019091010127
S113015001969093010180930001BF91AF919F910B
S11301608F910F900FBE0F901F9018951F920F92B2
S11301700FB60F9211248F939F93EF93FF931092D6
S113018016019091C60080911701E82FF0E0E85E17
S1130190FE4F90838F5F853118F48093170102C05E
S11301A010921701FF91EF919F918F910F900FBEC5
S11301B00F901F9018951092020110921301109243
S11301C0140110921701109216010E947301CFEFCF
S11301D0DFEF8FE39CE90197F1F700C00000809105
S11301E01701882331F080911601823010F00E94AB
S11301F02C03A89583E00E9416028838914058F594
S11302005D9A5F9A809102018062809302015B98FB
S11302105C9880910201806880930201109215011C
S1130220289A2A985E982D982C9810920D01109275
S11302300E0110920F01109210018091090190910A
S11302400A018031974218F10E94BB0310920A01FF
S1130250109209011CC0D0931201C0931101289877
S11302602A9A5B9A5F9A80910201806280930201CC
S11302705D98809102018F7780930201809115012E
S1130280811103C00E94E20302C00E94690381E05D
S11302900E9416028231924078F4809102018F7D8F
S11302A0809302015B9A2B9A809102018061809372
S11302B002015E982D988DCF2B98809102018F7E3C
S11302C0809302015F9A85CFF8941092C00020E9D0
S11302D02093C10026E02093C2009093C500809330
S11302E0C40078940895F89447E050E060E070E02A
S11302F08CE291E00E943604109261008DE384B98F
S113030082E085B917B818B88CEF8AB91BB814BC49
S113031085E085BD17BC18BC1092800080938100D5
S1130320109285001092840010928700109286002B
S1130330109289001092880010928B0010928A000B
S113034090E29093B6001092B0008093B1001092A6
S1130350B2001092B3001092B40081E080936E005A
S113036080936F0010927000109269001DBA109271
S1130370680080E880BF10927F0080E380937E0055
S113038080EC80937C0087EC80937A0010927B0051
S11303901CBC1092BC00A895E0E6F0E0808181626C
S11303A0808388E084BF80912C0190912D010E946C
S11303B06401789408955A9A2091C100286020938A
S11303C0C100282FFC018E2F821B861740F48091D8
S11303D0C00085FFFCCF81918093C600F4CF8AE0F2
S11303E08093C600109216018091C100877F80938C
S11303F0C1005A980895382FFC018FEF9FEF2E2FDC
S1130400231B261790F42191822728E0AC015695EE
S1130410479580FF06C0CA0171E0872770EA9727D5
S113042001C0CA01215091F7EACF0895806C8093EE
S11304307C0085E38A95F1F7000080917A0080645E
S113044080937A0080917A0084FFFCCF80917A00B7
S1130450806180937A00809178009091790008956A
S1130460CF93DF9390912E019093180185E08093B0
S11304701B0180911901843009F4A1C0803109F471
S113048054C0833009F0C8C082E180931A0190936C
S11304901C0180912C0190912D0183339105D9F099
S11304A050F480319105D9F089319105B1F0079765
S11304B0C9F483E715C08F3C910559F08F3921E0C9
S11304C0920729F08736910569F480E609C088E12E
S11304D007C080E305C083E103C086E201C089E36D
S11304E080931D0180912F019091300190931F0101
S11304F080931E01809131019091320190932101EA
S11305008093200185E79CE7A7E8BBE6809322015E
S113051090932301A0932401B093250184E0809358
S1130520260182E0809327017DC080911C018033E5
S1130530B1F048F4883181F08632B9F08331F1F4B6
S113054083E390E017C0803669F0833789F08933FC
S1130550A9F480E190E00EC08FE991E00BC08FEC2C
S113056090E008C087E690E005C089E190E002C011
S113057087E090E090932D0180932C0180911D01E0
S113058080932E0180911E0190911F019093300160
S113059080932F0180912001909121019093320149
S11305A08093310147E050E060E070E08CE291E03C
S11305B00E94460486E080931A01D1E034C081E1B0
S11305C080931A018091020180931C018091110192
S11305D090911201092E000CAA0BBB0B80931D01F4
S11305E090931E01A0931F01B093200183E00E9409
S11305F01602909322018093210181E00E94160249
S1130600909324018093230182E00E941602909328
S113061026018093250106C080688093190186E035
S113062080931A01D0E0E0911A01CEEFCE0F6C2F27
S113063088E191E00E94FB01EC2FF0E0E85EFE4FC0
S11306409183808360911A0188E191E00E94DB012B
S11306508D2FDF91CF910895CF93C0911A0180918E
S113066017018C17A0F18091C1008F768093C1008F
S11306708091180190912E01981711F0811116C0E4
S11306806EEF6C0F88E191E00E94FB01EC2FF0E02B
S1130690EA5EFE4F208131818217930739F48091FD
S11306A01B01853019F40E94300201C080E01092D1
S11306B017019091C10090699093C100882339F08B
S11306C080912C0190912D01CF910C946401CF91D4
S11306D008958091020184FD4DC080910D01909197
S11306E00E01A0910F01B091100181309749A944E6
S11306F0B14008F43FC080911501811113C01092DC
S11307000C0110920B0181E08093150182E00E949C
S1130710160290930801809307015C985E9A5D9895
S11307202D9A089580910B0190910C018133954786
S113073008F182E00E94160210920D0110920E013F
S113074010920F0110921001109215015E985D989D
S11307505C9A2D982091070130910801281B390BD0
S1130760809102012536310510F08F7B01C0806431
S11307708093020108958091070190910801892BCB
S1130780D1F082E00E9416029C0140910701509131
S1130790080186E591E0841B950BB901641B750B78
S11307A00E940E04709312016093110130930801AA
S11307B02093070108958FEF9FEF90931201809388
S11307C0110108958091020182FF12C082E00E940B
S11307D0160220912F013091300128173907E8F4CF
S11307E05C982C98809102018B7F8093020108957C
S11307F082E00E9416022091310130913201821769
S1130800930740F4809102018460809302015C9A12
S11308102C9A08950E9469035C98089597FB072E0B
S113082016F4009407D077FD09D00E94220407FC37
S113083005D03EF4909581959F4F089570956195EC
S11308407F4F0895AA1BBB1B51E107C0AA1FBB1F02
S1130850A617B70710F0A61BB70B881F991F5A9548
S1130860A9F780959095BC01CD010895DC01CB01D9
S1130870FC01F999FECF06C0F2BDE1BDF89A3196AC
S113088000B40D9241505040B8F70895DC01CB01FB
S113089003C02D910E94510441505040D0F7089557
S11308A0262FF999FECF1FBA92BD81BD20BD0FB688
S11308B0F894FA9AF99A0FBE01960895F894FFCF26
S9030000FC
