:100000000C9434000C9451000C9451000C94510049
:100010000C9451000C9451000C9451000C9451001C
:100020000C9451000C9451000C9451000C9451000C
:100030000C9451000C9453000C9451000C945100FA
:100040000C947C000C9451000C948F000C94510083
:100050000C9451000C9451000C9451000C945100DC
:100060000C9451000C94510011241FBECFEFD8E026
:10007000DEBFCDBF11E0A0E0B1E0E8E0F7E002C0F4
:1000800005900D92A030B107D9F721E0A0E0B1E0D2
:1000900001C01D92AE32B207E1F70E94B4000C9489
:1000A00082030C9400001F920F920FB60F9211243E
:1000B0008F939F93809103019091040101969093F7
:1000C000040180930301809105019091060101963E
:1000D00090930601809305018091010190910201A6
:1000E000019690930201809301019F918F910F904F
:1000F0000FBE0F901F9018951F920F920FB60F9280
:1001000011248F9384E586BD80910D018F5F8093CC
:100110000D018F910F900FBE0F901F9018951F9299
:100120000F920FB60F9211248F939F93EF93FF932B
:1001300010920D019091C60080910E01E82FF0E021
:10014000E15FFE4F90838F5F853118F480930E013D
:1001500002C010920E01FF91EF919F918F910F902D
:100160000FBE0F901F90189510920E0110920D0166
:100170000E94300187E7809323018FE6809324015A
:1001800082E7809325018BE6809326011092270158
:100190008FE39FE10197F1F700C0000065E083E283
:1001A00091E00E94920180910E01882331F08091AC
:1001B0000D01823010F00E948D0281E00E94BF028A
:1001C0008A34924030F42F985D985C9A5B9A2B9A0F
:1001D000DFCF2B9883E00E94BF0289329140C8F4A0
:1001E0005D9A5F9A5B985C98809107018068809324
:1001F0000701289A2A9880910101909102018C347C
:100200009E4030F20E9412031092020110920101EE
:10021000BFCF28982A9A5B9A5F9A5D9880910701D0
:100220008F778093070182E00E94BF028A34924058
:1002300018F45C9A2C9AACCF2C985C980E94D90246
:10024000A7CFF8941092C00028E12093C10026E0C7
:100250002093C2009093C5008093C40078940895C1
:10026000F89445E050E060E070E089E291E00E949F
:100270005A038DE384B982E085B917B818B88CEFBA
:100280008AB91BB814BC85E085BD16BC17BC18BC68
:10029000109280008093810010928500109284005B
:1002A00010928700109286001092890010928800A8
:1002B00010928B0010928A001092B6001092B0003B
:1002C0008093B1001092B2001092B3001092B4006B
:1002D00081E080936E0080936F0080937000109295
:1002E00069001DBA1092680080E880BF10927F00FC
:1002F00080E380937E0080EC80937C0086EC80938A
:100300007A0010927B001CBC1092BC00A8958CE077
:10031000809360008091290190912A010E9421011F
:10032000789408955A9A2091C10028602093C100C2
:10033000282FFC018E2F821B861740F48191809319
:10034000C6008091C00085FFFCCFF4CF10920D0154
:10035000FFCF382FFC018FEF9FEF2E2F231B261787
:1003600090F42191822728E0AC015695479580FFB3
:1003700006C0CA0171E0872770EA972701C0CA0149
:10038000215091F7EACF089590912B0190930F019E
:1003900085E08093120180911001843009F48CC0B3
:1003A000803109F44CC0833009F09AC080E1809319
:1003B0001101909313018091290190912A018333B7
:1003C0009105D9F050F480319105D9F0893191052A
:1003D000B1F00797C9F483E715C08F3C910559F038
:1003E0008F3921E0920729F08736910569F480E67C
:1003F00009C088E107C080E305C083E103C086E24D
:1004000001C089E38093140180912D01809315012F
:1004100080912C018093160185E79CE7A7E8BBE655
:100420008093170190931801A0931901B0931A01BA
:1004300084E080931B0182E080931C0159C080916D
:1004400013018033B1F048F4883181F08632B9F07D
:100450008331F1F483E390E017C0803669F083378D
:1004600089F08933A9F480E190E00EC08FE991E032
:100470000BC08FEC90E008C087E690E005C089E1F2
:1004800090E002C087E090E090932A0180932901D8
:100490008091140180932B018091150180932D018F
:1004A0008091160180932C0145E050E060E070E0FF
:1004B00089E291E00E946A03809107018093130111
:1004C0008091080190910901A0910A01B0910B015E
:1004D0008093140190931501A0931601B093170116
:1004E0008091100180688093100186E08093110153
:1004F000E0911101CEEFCE0F6C2F8FE091E00E94C2
:10050000A901EC2FF0E0E15FFE4F918380836091C1
:1005100011018FE091E00E949201CF93C0911101EF
:1005200080910E018C1748F18091C1008F768093E5
:10053000C10080910F0190912B01981711F081114A
:1005400015C06EEF6C0F8FE091E00E94A901EC2FB7
:10055000F0E0E35FFE4F208131818217930731F491
:1005600080911201853011F40E94C40110920E0195
:100570008091C10080698093C100CF910895806C03
:1005800080937C0085E38A95F1F7000080917A00E2
:10059000806480937A0080917A0084FFFCCF809100
:1005A0007A00806180937A00809178009091790040
:1005B000089580910C01811111C0109204011092D4
:1005C000030181E080930C0182E00E94BF028093CE
:1005D00000015C985E9A5D9A2D9A089580910301BE
:1005E000909104018C349E40E0F082E00E94BF02B2
:1005F000109206011092050110920C015E985D9810
:100600005C9A2D982091000130E0281B31098091DF
:1006100007012330310514F08F7B01C08064809383
:100620000701089582E00E94BF02AC012091000101
:1006300030E086E090E0821B930BBA017727621BC3
:10064000730B0E943203CB01770FAA0BBB0B809375
:10065000080190930901A0930A01B0930B01409304
:100660000001089597FB072E16F4009407D077FD3C
:1006700009D00E94460307FC05D03EF49095819571
:100680009F4F0895709561957F4F0895AA1BBB1BDE
:1006900051E107C0AA1FBB1FA617B70710F0A61B82
:1006A000B70B881F991F5A95A9F780959095BC01A3
:1006B000CD010895DC01CB01FC01F999FECF06C004
:1006C000F2BDE1BDF89A319600B40D924150504010
:1006D000B8F70895DC01CB0103C02D910E9475038A
:1006E00041505040D0F70895262FF999FECF1FBAF8
:1006F00092BD81BD20BD0FB6F894FA9AF99A0FBE4B
:0807000001960895F894FFCF63
:00000001FF
